:100000000C942A000C943F000C943F000C943F0089
:100010000C943F000C943F000C943F000C943F0064
:100020000C943F000C943F000C943F000C943F0054
:100030000C943F000C943F000C943F000C943F0044
:100040000C943F000C943F000C943F000C943F0034
:100050000C943F0011241FBECFE5D8E0DEBFCDBF1A
:1000600010E0A0E6B0E0ECE9F4E302C005900D92E8
:10007000A836B107D9F70E94C1190C944C1A0C94F8
:100080000000EF92FF920F931F937B018C0120E001
:1000900030E040E05FE40E94ED0388238CF0C8016B
:1000A000B70120E030E040E05FE40E94B9010E9427
:1000B0004D049B01AC01205030404040504806C0E8
:1000C000C801B7010E944D049B01AC01B901CA01EE
:1000D0001F910F91FF90EF900895A0E0B0E0E3E74B
:1000E000F0E00C94D019DC012B01FA019C919230C4
:1000F00008F439C1EB018881823008F433C19430AF
:1001000069F4843009F02FC111969C91119789816F
:10011000981709F428C1A0E6B0E025C1843009F49D
:1001200021C18230A9F4923009F01DC19A01AD01BC
:1001300088E0EA010990AE01E90109929E0181502F
:10014000C1F7E201898111969C918923818308C1BD
:10015000923009F407C112962D903C901397EB0151
:100160008A819B811496AD90BD90CD90DC901797BD
:10017000EC80FD800E811F819101281B390BB90194
:1001800037FF04C066277727621B730B6032710547
:100190000CF061C0121613066CF537014801062EEB
:1001A00004C096948794779467940A94D2F721E0D8
:1001B00030E040E050E004C0220F331F441F551FC1
:1001C0006A95D2F721503040404050402E213F21C7
:1001D00040235123211531054105510521F021E02E
:1001E00030E040E050E079018A01E628F72808294C
:1001F00019293CC0232BD1F1260E371E35014601AB
:10020000062E04C096948794779467940A94D2F744
:1002100021E030E040E050E004C0220F331F441FD3
:10022000551F6A95D2F721503040404050402A2156
:100230003B214C215D21211531054105510521F05E
:1002400021E030E040E050E059016A01A628B728DB
:10025000C828D9280BC0821593052CF01C01AA24AC
:10026000BB24650103C0EE24FF24870111969C91F5
:10027000D20111968C91981709F445C0992339F051
:10028000A80197012A193B094C095D0906C0A6017E
:1002900095012E193F09400B510B57FD08C01182E3
:1002A0003382228224833583468357831DC081E0B5
:1002B00081833382228288279927DC01821B930B5A
:1002C000A40BB50B84839583A683B7830DC0220F3F
:1002D000331F441F551F24833583468357838281F0
:1002E000938101979383828324813581468157814D
:1002F000DA01C9010197A109B1098F5F9F4FAF4F83
:10030000BF4328F30BC0918333822282EA0CFB1C8B
:100310000C1D1D1DE482F5820683178383E0808314
:10032000248135814681578157FF1AC0C901AA2708
:1003300097FDA095BA2F81709070A070B0705695FF
:10034000479537952795822B932BA42BB52B848328
:100350009583A683B7838281938101969383828359
:10036000DF0101C0D201CD01CDB7DEB7E2E10C94CF
:10037000EC19A0E2B0E0EFEBF1E00C94DC1969833A
:100380007A838B839C832D833E834F835887E9E058
:10039000EE2EF12CEC0EFD1ECE010196B7010E944F
:1003A00076058E010F5E1F4FCE010596B8010E94A3
:1003B00076058A8991E089278A8BC701B801AE0149
:1003C000475E5F4F0E946D000E94A104A096E6E088
:1003D0000C94F819A0E2B0E0E0EFF1E00C94DC1925
:1003E00069837A838B839C832D833E834F835887D5
:1003F000F9E0EF2EF12CEC0EFD1ECE010196B701B7
:100400000E9476058E010F5E1F4FCE010596B80142
:100410000E947605C701B801AE01475E5F4F0E949A
:100420006D000E94A104A096E6E00C94F819A0E2E9
:10043000B0E0EDE1F2E00C94D01969837A838B830C
:100440009C832D833E834F835887CE010196BE0146
:10045000675F7F4F0E947605CE010596BE016F5EF5
:100460007F4F0E9476059985923088F08989823085
:10047000C8F0943019F4823051F404C0843029F467
:10048000923081F480E690E0C6C0923049F420E0DA
:100490009A858A89981321E02A87CE010996BBC0E4
:1004A000823049F420E09A858A89981321E02A8BCA
:1004B000CE014196B0C02D843E844F8458886D880B
:1004C0007E888F88988CEE24FF248701AA24BB2481
:1004D000650140E050E060E070E0E0E0F0E0C10184
:1004E00081709070892BE9F0E60CF71C081D191D2E
:1004F0009A01AB012A0D3B1D4C1D5D1D80E090E073
:10050000A0E0B0E0E614F7040805190520F481E046
:1005100090E0A0E0B0E0BA01A901480F591F6A1F9E
:100520007B1FAA0CBB1CCC1CDD1C97FE08C081E005
:1005300090E0A0E0B0E0A82AB92ACA2ADB2A3196C6
:10054000E032F10549F0660C771C881C991C569422
:10055000479437942794C3CFFA85EA892B893C893D
:100560008B859C85280F391F2E5F3F4F17C0CA010E
:1005700081709070892B61F016950795F794E79438
:1005800080E090E0A0E0B0E8E82AF92A0A2B1B2BD3
:1005900076956795579547952F5F3F4F77FDE7CF46
:1005A0000CC0440F551F661F771F17FD4160EE0CEE
:1005B000FF1C001F111F21503040403090E05907B0
:1005C00090E0690790E4790760F32B8F3C8FDB01A3
:1005D000CA018F779070A070B07080349105A1052A
:1005E000B10561F447FD0AC0E114F10401051105EC
:1005F00029F0405C5F4F6F4F7F4F40781A8EFE1797
:1006000011F081E08A8F4D8F5E8F6F8F78A383E02A
:10061000898FCE0149960E94A104A096E2E10C9434
:10062000EC19A8E1B0E0E7E1F3E00C94D819698394
:100630007A838B839C832D833E834F835887B9E0D5
:10064000EB2EF12CEC0EFD1ECE010196B7010E949F
:1006500076058E010F5E1F4FCE010596B8010E94F0
:1006600076052985223008F47EC03989323010F4AD
:10067000B8017CC08A859A8989278A87243011F03D
:10068000223031F4231709F06EC060E670E06EC0CE
:10069000343039F41D861E861F86188A1C861B86F8
:1006A00004C0323021F484E08987B7015FC02B8514
:1006B0003C858B899C89281B390B3C872B87ED84D3
:1006C000FE840F851889AD88BE88CF88D88CEA143F
:1006D000FB040C051D0540F4EE0CFF1C001F111F50
:1006E000215030403C872B8720E030E040E050E054
:1006F00080E090E0A0E0B0E460E070E0EA14FB0489
:100700000C051D0540F0282B392B4A2B5B2BEA18D2
:10071000FB080C091D09B695A79597958795EE0CD2
:10072000FF1C001F111F6F5F7F4F6F31710531F785
:10073000DA01C9018F779070A070B0708034910594
:10074000A105B10561F427FD0AC0E114F10401051A
:10075000110529F0205C3F4F4F4F5F4F20782D87C8
:100760003E874F87588BBE01675F7F4FCB010E944A
:10077000A1046896EAE00C94F419A8E1B0E0E3EC77
:10078000F3E00C94DC1969837A838B839C832D833B
:100790003E834F83588789E0E82EF12CEC0EFD1E36
:1007A000CE010196B7010E9476058E010F5E1F4FA4
:1007B000CE010596B8010E9476058985823040F009
:1007C0008989823028F0C701B8010E94EE0501C076
:1007D0008FEF6896E6E00C94F819A8E1B0E0E3EF3B
:1007E000F3E00C94DC1969837A838B839C832D83DB
:1007F0003E834F83588789E0E82EF12CEC0EFD1ED6
:10080000CE010196B7010E9476058E010F5E1F4F43
:10081000CE010596B8010E9476058985823040F0A8
:100820008989823028F0C701B8010E94EE0501C015
:100830008FEF6896E6E00C94F819A8E1B0E0E3E2E7
:10084000F4E00C94DC1969837A838B839C832D8379
:100850003E834F83588789E0E82EF12CEC0EFD1E75
:10086000CE010196B7010E9476058E010F5E1F4FE3
:10087000CE010596B8010E9476058985823040F048
:100880008989823028F0C701B8010E94EE0501C0B5
:1008900081E06896E6E00C94F819ACE0B0E0E3E59E
:1008A000F4E00C94E01969837A838B839C83CE01F6
:1008B0000196BE016B5F7F4F0E9476058D8182306D
:1008C00061F1823050F1843021F48E81882351F11E
:1008D0002EC02F81388537FD20C06E812F31310524
:1008E0001CF06623F9F023C08EE190E0821B930B8D
:1008F00029853A854B855C8504C056954795379583
:1009000027958A95D2F76623B1F05095409530959A
:1009100021953F4F4F4F5F4F0EC020E030E040E049
:1009200050E009C02FEF3FEF4FEF5FE704C020E03A
:1009300030E040E050E8B901CA012C96E2E00C94A6
:10094000FC19DF92EF92FF920F931F93FC01E4805A
:10095000F58006811781D1808081823048F480E063
:1009600090E0A0E1B0E0E82AF92A0A2B1B2BA5C0F1
:10097000843009F49FC0823021F4EE24FF248701E3
:1009800005C0E114F1040105110519F4E0E0F0E0FF
:1009900096C0628173819FEF623879070CF05BC06B
:1009A00022E83FEF261B370B2A3131052CF020E0DF
:1009B00030E040E050E02AC0B801A701022E04C098
:1009C00076956795579547950A94D2F781E090E020
:1009D000A0E0B0E004C0880F991FAA1FBB1F2A9592
:1009E000D2F70197A109B1098E219F21A023B1233C
:1009F0000097A105B10521F081E090E0A0E0B0E012
:100A00009A01AB01282B392B4A2B5B2BDA01C90148
:100A10008F779070A070B07080349105A105B105FA
:100A200039F427FF09C0205C3F4F4F4F5F4F04C090
:100A3000215C3F4F4F4F5F4FE0E0F0E02030A0E0FF
:100A40003A07A0E04A07A0E45A0710F0E1E0F0E01E
:100A500079018A0127C06038710564F5FB01E1580E
:100A6000FF4FD801C7018F779070A070B0708034AD
:100A70009105A105B10539F4E7FE0DC080E490E0D1
:100A8000A0E0B0E004C08FE390E0A0E0B0E0E80EAA
:100A9000F91E0A1F1B1F17FF05C016950795F7942F
:100AA000E794319687E016950795F794E7948A9531
:100AB000D1F705C0EE24FF248701EFEFF0E06E2FA1
:100AC000679566276795902F9F77D794DD24D794F5
:100AD0008E2F8695492F462B582F5D29B701CA01C5
:100AE0001F910F91FF90EF90DF900895FC01DB01C3
:100AF000408151812281622F6F7770E0221F22276F
:100B0000221F9381892F880F822B282F30E0991F75
:100B10009927991F11969C93119721153105A9F5D5
:100B2000411551056105710511F482E037C082E875
:100B30009FEF13969C938E9312979A01AB0167E0F7
:100B4000220F331F441F551F6A95D1F783E08C9302
:100B50000DC0220F331F441F551F12968D919C917B
:100B60001397019713969C938E931297203080E0F1
:100B7000380780E0480780E4580758F314962D930F
:100B80003D934D935C93179708952F3F310579F46A
:100B9000411551056105710519F484E08C930895A0
:100BA00064FF03C081E08C9312C01C9210C02F57C9
:100BB000304013963C932E93129783E08C9387E0FA
:100BC000440F551F661F771F8A95D1F770641496DE
:100BD0004D935D936D937C93179708951F93DC015C
:100BE000FB019C91923008F447C08081823008F468
:100BF00043C0943051F411961C91843099F5818151
:100C0000682F70E0611B71093FC0843021F0923081
:100C100031F48230B9F18181882389F12DC0119698
:100C20001C9111978230F1F081811817D9F4129636
:100C30002D913C911397828193818217930794F0B1
:100C400028173907BCF014968D919D910D90BC9199
:100C5000A02D2481358146815781281739074A07FD
:100C60005B0718F4112341F00AC082179307A40709
:100C7000B50740F4112319F061E070E005C06FEF93
:100C80007FEF02C060E070E0CB011F9108950F93E9
:100C90001F93DF93CF93CDB7DEB7C859D0400FB6BF
:100CA000F894DEBF0FBECDBFFE01EB56FF4F80E0D4
:100CB00090E0A0E2B2E480839183A283B3838E01AB
:100CC0000F561F4FFE01EB56FF4F608171818281ED
:100CD000938120E030E04AEF54E40E941702DC01E7
:100CE000CB01F80180839183A283B383FE01EF5689
:100CF000FF4F608171818281938120E030E040E884
:100D00005FE30E941D04882344F4FE01E157FF4F76
:100D100081E090E09183808364C0FE01EF56FF4F35
:100D2000608171818281938120E03FEF4FE757E43A
:100D30000E94BD0318160CF043C0FE01EB56FF4F96
:100D4000608171818281938120E030E040E251E452
:100D50000E941702DC01CB018E0101571F4FBC011D
:100D6000CD010E944100DC01CB01F8019183808319
:100D70001FC0FE01E357FF4F88EC90E09183808312
:100D8000FE01E357FF4F808191810197F1F7FE014A
:100D9000E357FF4F91838083DE01A157BF4FFE01D0
:100DA000E157FF4F80819181019711969C938E931B
:100DB000FE01E157FF4F808191810097D1F627C056
:100DC0008E0101571F4FFE01EF56FF4F6081718169
:100DD000828193810E944100DC01CB01F801918363
:100DE0008083DE01A557BF4FFE01E157FF4F808191
:100DF00091818D939C93FE01E557FF4F80819181F6
:100E00000197F1F7FE01E557FF4F9183808384E05E
:100E100060E041E00E94001784E061E041E00E9450
:100E2000001784E062E040E00E94001784E063E085
:100E300040E00E94001783E060E040E00E9400175D
:100E400083E061E040E00E94001783E062E041E05F
:100E50000E940017FE01E957FF4F80E090E0A0E8F4
:100E6000BFE380839183A283B3838E010D571F4F0D
:100E7000FE01E957FF4F60817181828193812BEAE6
:100E80003AEA4AE250E40E941702DC01CB01F80181
:100E900080839183A283B383FE01ED57FF4F60816E
:100EA00071818281938120E030E040E85FE30E941D
:100EB0001D04882334F4FE01EE57FF4F81E0808348
:100EC000E0C0FE01ED57FF4F608171818281938107
:100ED00020E030E04FE753E40E94BD0318160CF009
:100EE000C0C0FE01E957FF4F60817181828193810B
:100EF00020E030E04AE754E40E941103DC01CB011A
:100F0000FE01E258FF4F80839183A283B3838E0159
:100F100006581F4FFE01E258FF4F608171818281A8
:100F2000938120E030E04AEF54E40E941702DC0194
:100F3000CB01F80180839183A283B383FE01E6583D
:100F4000FF4F608171818281938120E030E040E831
:100F50005FE30E941D04882344F4FE01E858FF4F1C
:100F600081E090E09183808364C0FE01E658FF4FEA
:100F7000608171818281938120E03FEF4FE757E4E8
:100F80000E94BD0318160CF043C0FE01E258FF4F4B
:100F9000608171818281938120E030E040E251E400
:100FA0000E941702DC01CB018E0108581F4FBC01C3
:100FB000CD010E944100DC01CB01F80191838083C7
:100FC0001FC0FE01EA58FF4F88EC90E091838083B8
:100FD000FE01EA58FF4F808191810197F1F7FE01F0
:100FE000EA58FF4F91838083DE01A858BF4FFE016E
:100FF000E858FF4F80819181019711969C938E93C1
:10100000FE01E858FF4F808191810097D1F64BC0D7
:101010008E0108581F4FFE01E658FF4F6081718115
:10102000828193810E944100DC01CB01F801918310
:101030008083DE01AC58BF4FFE01E858FF4F80812E
:10104000918111969C938E93FE01EC58FF4F808105
:1010500091810197F1F7FE01EC58FF4F9183808356
:1010600022C08E010E571F4FFE01ED57FF4F6081CA
:101070007181828193810E944100DC01CB01F801E2
:101080008083DE01AD58BF4FFE01EE57FF4F8081D8
:101090008C93FE01ED58FF4F80818A95F1F7FE0198
:1010A000ED58FF4F808383E062E040E00E9400172C
:1010B000FE01E159FF4F80E090E0A0EAB0E48083B8
:1010C0009183A283B3838E0105591F4FFE01E1591D
:1010D000FF4F608171818281938120E030E04AEF8F
:1010E00054E40E941702DC01CB01F8018083918354
:1010F000A283B383FE01E559FF4F60817181828134
:10110000938120E030E040E85FE30E941D048823E3
:1011100044F4FE01E759FF4F81E090E09183808322
:1011200064C0FE01E559FF4F608171818281938126
:1011300020E03FEF4FE757E40E94BD0318160CF084
:1011400043C0FE01E159FF4F60817181828193812B
:1011500020E030E040E251E40E941702DC01CB01C4
:101160008E0107591F4FBC01CD010E944100DC01D7
:10117000CB01F801918380831FC0FE01E959FF4F25
:1011800088EC90E091838083FE01E959FF4F8081D4
:1011900091810197F1F7FE01E959FF4F9183808317
:1011A000DE01A759BF4FFE01E759FF4F80819181B2
:1011B000019711969C938E93FE01E759FF4F808112
:1011C00091810097D1F627C08E0107591F4FFE016C
:1011D000E559FF4F60817181828193810E944100B6
:1011E000DC01CB01F80191838083DE01AB59BF4F55
:1011F000FE01E759FF4F808191818D939C93FE0101
:10120000EB59FF4F808191810197F1F7FE01EB5976
:10121000FF4F9183808384E060E041E00E940017EB
:1012200084E061E041E00E94001784E062E040E079
:101230000E94001784E063E040E00E94001783E012
:1012400060E040E00E94001783E061E040E00E941F
:10125000001783E062E041E00E940017FE01EF59B1
:10126000FF4F80E090E0A0E8BFE380839183A283FA
:10127000B3838E01035A1F4FFE01EF59FF4F608168
:101280007181828193812BEA3AEA4AE250E40E941A
:101290001702DC01CB01F80180839183A283B38321
:1012A000FE01E35AFF4F608171818281938120E0CA
:1012B00030E040E85FE30E941D04882334F4FE011F
:1012C000E45AFF4F81E08083E0C0FE01E35AFF4F04
:1012D000608171818281938120E030E04FE753E4A7
:1012E0000E94BD0318160CF0C0C0FE01EF59FF4F5D
:1012F000608171818281938120E030E04AE754E48B
:101300000E941103DC01CB01FE01E85AFF4F8083EC
:101310009183A283B3838E010C5A1F4FFE01E85ABA
:10132000FF4F608171818281938120E030E04AEF3C
:1013300054E40E941702DC01CB01F8018083918301
:10134000A283B383FE01EC5AFF4F608171818281D9
:10135000938120E030E040E85FE30E941D04882391
:1013600044F4FE01EE5AFF4F81E090E091838083C8
:1013700064C0FE01EC5AFF4F6081718182819381CC
:1013800020E03FEF4FE757E40E94BD0318160CF032
:1013900043C0FE01E85AFF4F6081718182819381D1
:1013A00020E030E040E251E40E941702DC01CB0172
:1013B0008E010E5A1F4FBC01CD010E944100DC017D
:1013C000CB01F801918380831FC0FE01E05BFF4FDA
:1013D00088EC90E091838083FE01E05BFF4F808189
:1013E00091810197F1F7FE01E05BFF4F91838083CC
:1013F000DE01AE5ABF4FFE01EE5AFF4F8081918150
:10140000019711969C938E93FE01EE5AFF4F8081B7
:1014100091810097D1F64BC08E010E5A1F4FFE01ED
:10142000EC5AFF4F60817181828193810E9441005B
:10143000DC01CB01F80191838083DE01A25BBF4F09
:10144000FE01EE5AFF4F8081918111969C938E93FD
:10145000FE01E25BFF4F808191810197F1F7FE0170
:10146000E25BFF4F9183808322C08E01045A1F4F9D
:10147000FE01E35AFF4F60817181828193810E9456
:101480004100DC01CB01F8018083DE01A35BBF4F8B
:10149000FE01E45AFF4F80818C93FE01E35BFF4F16
:1014A00080818A95F1F7FE01E35BFF4F808383E043
:1014B00062E040E00E940017FE01E75BFF4F80E022
:1014C00090E0A0E8BFE380839183A283B3838E0181
:1014D0000B5B1F4FFE01E75BFF4F608171818281D3
:1014E000938120E030E04AEF54E40E941702DC01CF
:1014F000CB01F80180839183A283B383FE01EB5B70
:10150000FF4F608171818281938120E030E040E86B
:101510005FE30E941D04882344F4FE01ED5BFF4F4E
:1015200081E090E09183808364C0FE01EB5BFF4F1C
:10153000608171818281938120E03FEF4FE757E422
:101540000E94BD0318160CF043C0FE01E75BFF4F7D
:10155000608171818281938120E030E040E251E43A
:101560000E941702DC01CB018E010D5B1F4FBC01F5
:10157000CD010E944100DC01CB01F8019183808301
:101580001FC0FE01EF5BFF4F88EC90E091838083EA
:10159000FE01EF5BFF4F808191810197F1F7FE0122
:1015A000EF5BFF4F91838083DE01AD5BBF4FFE0198
:1015B000ED5BFF4F80819181019711969C938E93F3
:1015C000FE01ED5BFF4F808191810097D1F624C031
:1015D0008E010D5B1F4FFE01EB5BFF4F6081718140
:1015E000828193810E944100DC01CB01F80191834B
:1015F0008083FE01ED5BFF4F80819181FE01FF96AC
:1016000091838083FE01FF96808191810197F1F79C
:10161000FE01FF969183808384E060E041E00E94B8
:10162000001784E061E041E00E94001784E062E07E
:1016300040E00E94001784E063E040E00E94001751
:1016400083E060E040E00E94001783E061E040E05A
:101650000E94001783E062E041E00E94001780E0F2
:1016600090E0A0E8BFE38BAF9CAFADAFBEAF6BAD7A
:101670007CAD8DAD9EAD2BEA3AEA4AE250E40E9481
:101680001702DC01CB018FAB98AFA9AFBAAF6FA93E
:1016900078AD89AD9AAD20E030E040E85FE30E948C
:1016A0001D0488231CF481E08EAB91C06FA978AD36
:1016B00089AD9AAD20E030E04FE753E40E94BD03CE
:1016C00018160CF07BC06BAD7CAD8DAD9EAD20E0EF
:1016D00030E04AE754E40E941103DC01CB018AABFD
:1016E0009BABACABBDAB6AA97BA98CA99DA920E043
:1016F00030E04AEF54E40E941702DC01CB018EA7D0
:101700009FA7A8ABB9AB6EA57FA588A999A920E032
:1017100030E040E85FE30E941D0488232CF481E060
:1017200090E09DA78CA73FC06EA57FA588A999A929
:1017300020E03FEF4FE757E40E94BD0318164CF539
:101740006AA97BA98CA99DA920E030E040E251E480
:101750000E941702DC01CB01BC01CD010E944100B7
:10176000DC01CB019DA78CA70FC088EC90E09BA764
:101770008AA78AA59BA50197F1F79BA78AA78CA5A5
:101780009DA501979DA78CA78CA59DA5009769F79E
:1017900024C06EA57FA588A999A90E944100DC01FB
:1017A000CB019DA78CA78CA59DA599A788A788A5E7
:1017B00099A50197F1F799A788A70FC06FA978ADF0
:1017C00089AD9AAD0E944100DC01CB018EAB8EA9A0
:1017D0008FA38FA18A95F1F78FA383E062E040E0A9
:1017E0000E94001784E060E040E00E94001784E05F
:1017F00061E041E00E94001784E062E040E00E9466
:10180000001784E063E040E00E94001783E060E09E
:1018100040E00E94001783E061E040E00E94001772
:1018200083E062E041E00E94001780E090E0A0E8E1
:10183000BFE38BA39CA3ADA3BEA36BA17CA18DA191
:101840009EA12BEA3AEA4AE250E40E941702DC0128
:10185000CB018F8F98A3A9A3BAA36F8D78A189A17B
:101860009AA120E030E040E85FE30E941D04882355
:101870001CF481E08E8F91C06F8D78A189A19AA10F
:1018800020E030E04FE753E40E94BD0318160CF04F
:101890007BC06BA17CA18DA19EA120E030E04AE736
:1018A00054E40E941103DC01CB018A8F9B8FAC8F23
:1018B000BD8F6A8D7B8D8C8D9D8D20E030E04AEF51
:1018C00054E40E941702DC01CB018E8B9F8BA88F02
:1018D000B98F6E897F89888D998D20E030E040E84E
:1018E0005FE30E941D0488232CF481E090E09D8B2F
:1018F0008C8B3FC06E897F89888D998D20E03FEF6A
:101900004FE757E40E94BD0318164CF56A8D7B8D96
:101910008C8D9D8D20E030E040E251E40E94170262
:10192000DC01CB01BC01CD010E944100DC01CB01F7
:101930009D8B8C8B0FC088EC90E09B8B8A8B8A8967
:101940009B890197F1F79B8B8A8B8C899D890197E5
:101950009D8B8C8B8C899D89009769F724C06E893B
:101960007F89888D998D0E944100DC01CB019D8B80
:101970008C8B8C899D89998B888B88899989019713
:10198000F1F7998B888B0FC06F8D78A189A19AA1EF
:101990000E944100DC01CB018E8F8E8D8F878F8559
:1019A0008A95F1F78F8783E062E040E00E9400179C
:1019B00082E00E94171188E20E9417118CE00E94B9
:1019C000171186E00E94171181E00E94171180E034
:1019D00090E0A0E0B0E48B879C87AD87BE876B85E5
:1019E0007C858D859E8520E030E04AEF54E40E949E
:1019F0001702DC01CB018F839887A987BA876F8193
:101A0000788589859A8520E030E040E85FE30E9490
:101A10001D0488232CF481E090E09E838D833FC0D9
:101A20006F81788589859A8520E03FEF4FE757E4FD
:101A30000E94BD0318164CF56B857C858D859E85AF
:101A400020E030E040E251E40E941702DC01CB01CB
:101A5000BC01CD010E944100DC01CB019E838D833E
:101A60000FC088EC90E09C838B838B819C810197D5
:101A7000F1F79C838B838D819E8101979E838D835B
:101A80008D819E81009769F714C06F817885898563
:101A90009A850E944100DC01CB019E838D838D815C
:101AA0009E819A83898389819A810197F1F79A832C
:101AB0008983C856DF4F0FB6F894DEBF0FBECDBF87
:101AC000CF91DF911F910F9108950F931F93DF9393
:101AD000CF93CDB7DEB7C755D0400FB6F894DEBF71
:101AE0000FBECDBFFE01E95AFF4F8083FE01E95AC8
:101AF000FF4F808182958F70982F917084E060E015
:101B0000492F0E940017FE01E95AFF4F80818295FC
:101B100086958770982F917084E061E0492F0E942C
:101B20000017FE01E95AFF4F8081829586958695C0
:101B30008370982F917084E062E0492F0E94001713
:101B4000FE01E95AFF4F8081982F991F9927991F0D
:101B500084E063E0492F0E94001783E060E041E0E9
:101B60000E94001783E061E040E00E94001783E0DC
:101B700062E041E00E940017FE01ED5AFF4F80E055
:101B800090E0A0E8BFE380839183A283B3838E01BA
:101B9000015B1F4FFE01ED5AFF4F60817181828111
:101BA00093812BEA3AEA4AE250E40E941702DC01F0
:101BB000CB01F80180839183A283B383FE01E15BB3
:101BC000FF4F608171818281938120E030E040E8A5
:101BD0005FE30E941D04882334F4FE01E25BFF4FA3
:101BE00081E08083E0C0FE01E15BFF4F6081718195
:101BF0008281938120E030E04FE753E40E94BD03EF
:101C000018160CF0C0C0FE01ED5AFF4F60817181C3
:101C10008281938120E030E04AE754E40E9411037E
:101C2000DC01CB01FE01E65BFF4F80839183A28341
:101C3000B3838E010A5B1F4FFE01E65BFF4F60819D
:101C400071818281938120E030E04AEF54E40E9468
:101C50001702DC01CB01F80180839183A283B38357
:101C6000FE01EA5BFF4F608171818281938120E0F8
:101C700030E040E85FE30E941D04882344F4FE0145
:101C8000EC5BFF4F81E090E09183808364C0FE01B4
:101C9000EA5BFF4F608171818281938120E03FEF99
:101CA0004FE757E40E94BD0318160CF043C0FE0135
:101CB000E65BFF4F608171818281938120E030E09B
:101CC00040E251E40E941702DC01CB018E010C5B63
:101CD0001F4FBC01CD010E944100DC01CB01F80186
:101CE000918380831FC0FE01EE5BFF4F88EC90E084
:101CF00091838083FE01EE5BFF4F8081918101978C
:101D0000F1F7FE01EE5BFF4F91838083DE01AC5B58
:101D1000BF4FFE01EC5BFF4F8081918101971196CF
:101D20009C938E93FE01EC5BFF4F80819181009725
:101D3000D1F642C08E010C5B1F4FFE01EA5BFF4FE4
:101D400060817181828193810E944100DC01CB011D
:101D5000F80191838083DE01A05CBF4FFE01EC5B44
:101D6000FF4F8081918111969C938E93FE01E05CE0
:101D7000FF4F808191810197F1F7FE01E05CFF4FF9
:101D80009183808319C08E01025B1F4FFE01E15BCE
:101D9000FF4F60817181828193810E944100DC014B
:101DA000CB01F8018083FE01E25BFF4F80818FAFA2
:101DB0008FAD8A95F1F78FAF83E062E040E00E943B
:101DC000001780E090E0A8E4B3E48BAF9CAFADAF28
:101DD000BEAF6BAD7CAD8DAD9EAD2BEA3AEA4AE26B
:101DE00050E40E941702DC01CB018FAB98AFA9AF82
:101DF000BAAF6FA978AD89AD9AAD20E030E040E888
:101E00005FE30E941D0488231CF481E08EAB91C027
:101E10006FA978AD89AD9AAD20E030E04FE753E48B
:101E20000E94BD0318160CF07BC06BAD7CAD8DAD70
:101E30009EAD20E030E04AE754E40E941103DC014B
:101E4000CB018AAB9BABACABBDAB6AA97BA98CA920
:101E50009DA920E030E04AEF54E40E941702DC0123
:101E6000CB018EA79FA7A8ABB9AB6EA57FA588A90C
:101E700099A920E030E040E85FE30E941D04882338
:101E80002CF481E090E09DA78CA73FC06EA57FA5B4
:101E900088A999A920E03FEF4FE757E40E94BD03CE
:101EA00018164CF56AA97BA98CA99DA920E030E001
:101EB00040E251E40E941702DC01CB01BC01CD01DC
:101EC0000E944100DC01CB019DA78CA70FC088ECCC
:101ED00090E09BA78AA78AA59BA50197F1F79BA7EE
:101EE0008AA78CA59DA501979DA78CA78CA59DA5CC
:101EF000009769F724C06EA57FA588A999A90E94BB
:101F00004100DC01CB019DA78CA78CA59DA599A7BD
:101F100088A788A599A50197F1F799A788A70FC069
:101F20006FA978AD89AD9AAD0E944100DC01CB016B
:101F30008EAB8EA98FA38FA18A95F1F78FA3FE0197
:101F4000E95AFF4F8081982F917084E060E0492F1B
:101F50000E940017FE01E95AFF4F80818695982F55
:101F6000917084E061E0492F0E940017FE01E95A58
:101F7000FF4F808186958695982F917084E062E06E
:101F8000492F0E940017FE01E95AFF4F8081869574
:101F900086958695982F917084E063E0492F0E9482
:101FA000001783E062E041E00E94001780E090E0CB
:101FB000A0E8BFE38BA39CA3ADA3BEA36BA17CA1B0
:101FC0008DA19EA12BEA3AEA4AE250E40E94170250
:101FD000DC01CB018F8F98A3A9A3BAA36F8D78A141
:101FE00089A19AA120E030E040E85FE30E941D044F
:101FF00088231CF481E08E8F91C06F8D78A189A118
:102000009AA120E030E04FE753E40E94BD03181688
:102010000CF07BC06BA17CA18DA19EA120E030E0E3
:102020004AE754E40E941103DC01CB018A8F9B8FA5
:10203000AC8FBD8F6A8D7B8D8C8D9D8D20E030E0C7
:102040004AEF54E40E941702DC01CB018E8B9F8B78
:10205000A88FB98F6E897F89888D998D20E030E0B7
:1020600040E85FE30E941D0488232CF481E090E0A7
:102070009D8B8C8B3FC06E897F89888D998D20E0E8
:102080003FEF4FE757E40E94BD0318164CF56A8DE9
:102090007B8D8C8D9D8D20E030E040E251E40E94EC
:1020A0001702DC01CB01BC01CD010E944100DC0123
:1020B000CB019D8B8C8B0FC088EC90E09B8B8A8B27
:1020C0008A899B890197F1F79B8B8A8B8C899D89E3
:1020D00001979D8B8C8B8C899D89009769F724C013
:1020E0006E897F89888D998D0E944100DC01CB012A
:1020F0009D8B8C8B8C899D89998B888B88899989FC
:102100000197F1F7998B888B0FC06F8D78A189A10A
:102110009AA10E944100DC01CB018E8F8E8D8F87AA
:102120008F858A95F1F78F8783E062E040E00E9417
:10213000001780E090E0A0E0B0E48B879C87AD873B
:10214000BE876B857C858D859E8520E030E04AEFDB
:1021500054E40E941702DC01CB018F839887A98782
:10216000BA876F81788589859A8520E030E040E8DC
:102170005FE30E941D0488232CF481E090E09E839D
:102180008D833FC06F81788589859A8520E03FEFF8
:102190004FE757E40E94BD0318164CF56B857C850C
:1021A0008D859E8520E030E040E251E40E941702D8
:1021B000DC01CB01BC01CD010E944100DC01CB015F
:1021C0009E838D830FC088EC90E09C838B838B81F2
:1021D0009C810197F1F79C838B838D819E81019770
:1021E0009E838D838D819E81009769F714C06F81D6
:1021F000788589859A850E944100DC01CB019E8308
:102200008D838D819E819A83898389819A810197AB
:10221000F1F79A838983C95ADF4F0FB6F894DEBF6E
:102220000FBECDBFCF91DF911F910F9108950F93F6
:102230001F93DF93CF93CDB7DEB7C755D0400FB60E
:10224000F894DEBF0FBECDBFFE01E95AFF4F808379
:10225000FE01E95AFF4F808182958F70982F91700F
:1022600084E060E0492F0E940017FE01E95AFF4F09
:102270008081829586958770982F917084E061E0C7
:10228000492F0E940017FE01E95AFF4F8081829575
:10229000869586958370982F917084E062E0492F2F
:1022A0000E940017FE01E95AFF4F8081982F991F65
:1022B0009927991F84E063E0492F0E94001783E06B
:1022C00060E040E00E94001783E061E040E00E948F
:1022D000001783E062E041E00E940017FE01ED5A22
:1022E000FF4F80E090E0A0E8BFE380839183A2836A
:1022F000B3838E01015B1F4FFE01ED5AFF4F6081DA
:102300007181828193812BEA3AEA4AE250E40E9489
:102310001702DC01CB01F80180839183A283B38390
:10232000FE01E15BFF4F608171818281938120E03A
:1023300030E040E85FE30E941D04882334F4FE018E
:10234000E25BFF4F81E08083E0C0FE01E15BFF4F75
:10235000608171818281938120E030E04FE753E416
:102360000E94BD0318160CF0C0C0FE01ED5AFF4FCD
:10237000608171818281938120E030E04AE754E4FA
:102380000E941103DC01CB01FE01E65BFF4F80835D
:102390009183A283B3838E010A5B1F4FFE01E65B2C
:1023A000FF4F608171818281938120E030E04AEFAC
:1023B00054E40E941702DC01CB01F8018083918371
:1023C000A283B383FE01EA5BFF4F6081718182814A
:1023D000938120E030E040E85FE30E941D04882301
:1023E00044F4FE01EC5BFF4F81E090E09183808339
:1023F00064C0FE01EA5BFF4F60817181828193813D
:1024000020E03FEF4FE757E40E94BD0318160CF0A1
:1024100043C0FE01E65BFF4F608171818281938141
:1024200020E030E040E251E40E941702DC01CB01E1
:102430008E010C5B1F4FBC01CD010E944100DC01ED
:10244000CB01F801918380831FC0FE01EE5BFF4F3B
:1024500088EC90E091838083FE01EE5BFF4F8081EA
:1024600091810197F1F7FE01EE5BFF4F918380832D
:10247000DE01AC5BBF4FFE01EC5BFF4F80819181C1
:10248000019711969C938E93FE01EC5BFF4F808128
:1024900091810097D1F642C08E010C5B1F4FFE0167
:1024A000EA5BFF4F60817181828193810E944100CC
:1024B000DC01CB01F80191838083DE01A05CBF4F7A
:1024C000FE01EC5BFF4F8081918111969C938E936E
:1024D000FE01E05CFF4F808191810197F1F7FE01E1
:1024E000E05CFF4F9183808319C08E01025B1F4F18
:1024F000FE01E15BFF4F60817181828193810E94C7
:102500004100DC01CB01F8018083FE01E25BFF4F5B
:1025100080818FAF8FAD8A95F1F78FAF83E062E056
:1025200040E00E94001780E090E0A8E4B3E48BAFA5
:102530009CAFADAFBEAF6BAD7CAD8DAD9EAD2BEAAC
:102540003AEA4AE250E40E941702DC01CB018FAB69
:1025500098AFA9AFBAAF6FA978AD89AD9AAD20E0B9
:1025600030E040E85FE30E941D0488231CF481E012
:102570008EAB91C06FA978AD89AD9AAD20E030E007
:102580004FE753E40E94BD0318160CF07BC06BADFF
:102590007CAD8DAD9EAD20E030E04AE754E40E9472
:1025A0001103DC01CB018AAB9BABACABBDAB6AA921
:1025B0007BA98CA99DA920E030E04AEF54E40E9459
:1025C0001702DC01CB018EA79FA7A8ABB9AB6EA504
:1025D0007FA588A999A920E030E040E85FE30E9448
:1025E0001D0488232CF481E090E09DA78CA73FC0B8
:1025F0006EA57FA588A999A920E03FEF4FE757E492
:102600000E94BD0318164CF56AA97BA98CA99DA947
:1026100020E030E040E251E40E941702DC01CB01EF
:10262000BC01CD010E944100DC01CB019DA78CA71C
:102630000FC088EC90E09BA78AA78AA59BA501976D
:10264000F1F79BA78AA78CA59DA501979DA78CA7AD
:102650008CA59DA5009769F724C06EA57FA588A9C4
:1026600099A90E944100DC01CB019DA78CA78CA5F4
:102670009DA599A788A788A599A50197F1F799A77E
:1026800088A70FC06FA978AD89AD9AAD0E944100AF
:10269000DC01CB018EAB8EA98FA38FA18A95F1F7B8
:1026A0008FA3FE01E95AFF4F8081982F917084E03B
:1026B00060E0492F0E940017FE01E95AFF4F808118
:1026C0008695982F917084E061E0492F0E94001751
:1026D000FE01E95AFF4F808186958695982F91706B
:1026E00084E062E0492F0E940017FE01E95AFF4F83
:1026F0008081869586958695982F917084E063E019
:10270000492F0E94001783E062E041E00E94001719
:1027100080E090E0A0E8BFE38BA39CA3ADA3BEA3A1
:102720006BA17CA18DA19EA12BEA3AEA4AE250E47A
:102730000E941702DC01CB018F8F98A3A9A3BAA333
:102740006F8D78A189A19AA120E030E040E85FE395
:102750000E941D0488231CF481E08E8F91C06F8D30
:1027600078A189A19AA120E030E04FE753E40E94CC
:10277000BD0318160CF07BC06BA17CA18DA19EA19E
:1027800020E030E04AE754E40E941103DC01CB0171
:102790008A8F9B8FAC8FBD8F6A8D7B8D8C8D9D8D2D
:1027A00020E030E04AEF54E40E941702DC01CB0144
:1027B0008E8B9F8BA88FB98F6E897F89888D998D1D
:1027C00020E030E040E85FE30E941D0488232CF401
:1027D00081E090E09D8B8C8B3FC06E897F89888DD6
:1027E000998D20E03FEF4FE757E40E94BD03181694
:1027F0004CF56A8D7B8D8C8D9D8D20E030E040E224
:1028000051E40E941702DC01CB01BC01CD010E9402
:102810004100DC01CB019D8B8C8B0FC088EC90E0DC
:102820009B8B8A8B8A899B890197F1F79B8B8A8B7B
:102830008C899D8901979D8B8C8B8C899D890097B4
:1028400069F724C06E897F89888D998D0E94410027
:10285000DC01CB019D8B8C8B8C899D89998B888B1E
:10286000888999890197F1F7998B888B0FC06F8DB3
:1028700078A189A19AA10E944100DC01CB018E8F31
:102880008E8D8F878F858A95F1F78F8783E062E041
:1028900040E00E94001780E090E0A0E0B0E48B8769
:1028A0009C87AD87BE876B857C858D859E8520E066
:1028B00030E04AEF54E40E941702DC01CB018F8321
:1028C0009887A987BA876F81788589859A8520E05E
:1028D00030E040E85FE30E941D0488232CF481E08F
:1028E00090E09E838D833FC06F81788589859A852E
:1028F00020E03FEF4FE757E40E94BD0318164CF568
:102900006B857C858D859E8520E030E040E251E43A
:102910000E941702DC01CB01BC01CD010E944100E5
:10292000DC01CB019E838D830FC088EC90E09C83FB
:102930008B838B819C810197F1F79C838B838D81A5
:102940009E8101979E838D838D819E81009769F77B
:1029500014C06F81788589859A850E944100DC01C9
:10296000CB019E838D838D819E819A83898389810A
:102970009A810197F1F79A838983C95ADF4F0FB67D
:10298000F894DEBF0FBECDBFCF91DF911F910F91A5
:102990000895DF93CF9300D000D0CDB7DEB79C83EE
:1029A0008B831A8219820FC029813A818B819C8185
:1029B000FC01E20FF31F80810E94650D89819A81DD
:1029C00001969A83898329813A818B819C81FC01BC
:1029D000E20FF31F8081882339F70F900F900F903B
:1029E0000F90CF91DF910895DF93CF93CDB7DEB7EE
:1029F00068970FB6F894DEBF0FBECDBF6D8B7E8B90
:102A00008F8B988F8D899E899E012F5F3F4FB901D3
:102A10004AE050E00E94071ACE0101960E94C914B4
:102A200068960FB6F894DEBF0FBECDBFCF91DF9191
:102A30000895DF93CF93CDB7DEB781E00E941711E1
:102A4000CF91DF910895DF93CF93CDB7DEB782E0CA
:102A50000E941711CF91DF910895DF93CF9300D09B
:102A60000F92CDB7DEB78A836B8380E889838A8132
:102A7000823019F489818064898389819B81890FDF
:102A8000898389810E9417110F900F900F90CF9129
:102A9000DF910895DF93CF93CDB7DEB7EAE3F0E09F
:102AA0008FEF8083E7E3F0E08FEF8083E4E3F0E0F3
:102AB0008FEF8083E1E3F0E08FEF8083EBE3F0E0E2
:102AC0001082E8E3F0E01082E5E3F0E01082E2E358
:102AD000F0E01082CF91DF910895DF93CF9300D083
:102AE00000D00F92CDB7DEB78A836B8319828B81BA
:102AF000883010F081E08983A0E5B0E0E0E5F0E007
:102B000080818B7F8C938A81282F30E03D832C83BA
:102B10008C819D818230910551F12C813D81233042
:102B2000310534F48C819D818130910561F05BC069
:102B30002C813D812330310571F18C819D81843060
:102B40009105E9F150C0ABE3B0E0EBE3F0E0808148
:102B5000482F8B81282F30E081E090E0022E02C0C8
:102B6000880F991F0A94E2F7842B8C933EC0A8E348
:102B7000B0E0E8E3F0E08081482F8B81282F30E03F
:102B800081E090E0022E02C0880F991F0A94E2F7BC
:102B9000842B8C932AC0A5E3B0E0E5E3F0E08081CC
:102BA000482F8B81282F30E081E090E0022E02C078
:102BB000880F991F0A94E2F7842B8C9316C0A2E326
:102BC000B0E0E2E3F0E08081482F8B81282F30E0F5
:102BD00081E090E0022E02C0880F991F0A94E2F76C
:102BE000842B8C9302C081E0898389810F900F90A0
:102BF0000F900F900F90CF91DF910895DF93CF93B7
:102C0000CDB7DEB727970FB6F894DEBF0FBECDBFA6
:102C100089836A834B838B81882309F075C08981FE
:102C2000282F30E03F832E838E819F818230910553
:102C300061F12E813F812330310534F48E819F81F3
:102C40008130910569F0D3C02E813F812330310559
:102C500089F18E819F818430910509F440C0C7C0FD
:102C6000AAE3B0E0EAE3F0E08081482F8A81282FD0
:102C700030E081E090E0022E02C0880F991F0A9494
:102C8000E2F7809584238C93B2C0A7E3B0E0E7E33A
:102C9000F0E08081482F8A81282F30E081E090E0A9
:102CA000022E02C0880F991F0A94E2F780958423B0
:102CB0008C939DC0A4E3B0E0E4E3F0E08081482F72
:102CC0008A81282F30E081E090E0022E02C0880F38
:102CD000991F0A94E2F7809584238C9388C0A1E31E
:102CE000B0E0E1E3F0E08081482F8A81282F30E0D6
:102CF00081E090E0022E02C0880F991F0A94E2F74B
:102D0000809584238C9373C08B81813009F06FC0D0
:102D10008981282F30E03D832C838C819D818230F6
:102D2000910551F12C813D812330310534F48C81A2
:102D30009D818130910561F05AC02C813D81233005
:102D4000310571F18C819D8184309105E9F14FC08D
:102D5000AAE3B0E0EAE3F0E08081482F8A81282FDF
:102D600030E081E090E0022E02C0880F991F0A94A3
:102D7000E2F7842B8C933BC0A7E3B0E0E7E3F0E0FD
:102D80008081482F8A81282F30E081E090E0022E58
:102D900002C0880F991F0A94E2F7842B8C9327C0F6
:102DA000A4E3B0E0E4E3F0E08081482F8A81282F9B
:102DB00030E081E090E0022E02C0880F991F0A9453
:102DC000E2F7842B8C9313C0A1E3B0E0E1E3F0E0E1
:102DD0008081482F8A81282F30E081E090E0022E08
:102DE00002C0880F991F0A94E2F7842B8C932796D0
:102DF0000FB6F894DEBF0FBECDBFCF91DF9108951F
:102E0000DF93CF93CDB7DEB728970FB6F894DEBF28
:102E10000FBECDBF8A836B834C8319828B81883030
:102E200010F081E089838C81882309F078C08A8141
:102E3000282F30E038872F838F8198858230910545
:102E400061F12F8138852330310534F48F819885E5
:102E50008130910569F060C02F81388523303105BC
:102E600089F18F8198858430910509F440C054C060
:102E7000ABE3B0E0EBE3F0E08081482F8B81282FBB
:102E800030E081E090E0022E02C0880F991F0A9482
:102E9000E2F7809584238C93B8C0A8E3B0E0E8E320
:102EA000F0E08081482F8B81282F30E081E090E096
:102EB000022E02C0880F991F0A94E2F7809584239E
:102EC0008C93A3C0A5E3B0E0E5E3F0E08081482F58
:102ED0008B81282F30E081E090E0022E02C0880F25
:102EE000991F0A94E2F7809584238C938EC0A2E305
:102EF000B0E0E2E3F0E08081482F8B81282F30E0C2
:102F000081E090E0022E02C0880F991F0A94E2F738
:102F1000809584238C9379C081E0898376C08C81ED
:102F2000813009F072C08A81282F30E03E832D83E2
:102F30008D819E818230910551F12D813E8123301A
:102F4000310534F48D819E818130910561F05BC043
:102F50002D813E812330310571F18D819E81843038
:102F60009105E9F150C0ABE3B0E0EBE3F0E0808124
:102F7000482F8B81282F30E081E090E0022E02C0A4
:102F8000880F991F0A94E2F7842B8C933EC0A8E324
:102F9000B0E0E8E3F0E08081482F8B81282F30E01B
:102FA00081E090E0022E02C0880F991F0A94E2F798
:102FB000842B8C932AC0A5E3B0E0E5E3F0E08081A8
:102FC000482F8B81282F30E081E090E0022E02C054
:102FD000880F991F0A94E2F7842B8C9316C0A2E302
:102FE000B0E0E2E3F0E08081482F8B81282F30E0D1
:102FF00081E090E0022E02C0880F991F0A94E2F748
:10300000842B8C9302C081E08983898128960FB636
:10301000F894DEBF0FBECDBFCF91DF910895DF934F
:10302000CF93CDB7DEB727970FB6F894DEBF0FBEAC
:10303000CDBF8A836B835D834C8319828B818830FB
:1030400010F081E089838A81282F30E03F832E832E
:103050004E815F814230510559F18E819F818330CD
:10306000910534F42E813F812130310569F05CC037
:103070004E815F814330510579F18E819F8184308B
:10308000910509F43DC050C0E9E3F0E08081282FAC
:1030900030E08B81882F90E0A90102C055954795BB
:1030A0008A95E2F7CA018170EC81FD8180833EC080
:1030B000E6E3F0E08081282F30E08B81882F90E0DC
:1030C000A90102C0559547958A95E2F7CA0181701A
:1030D000EC81FD8180832AC0E3E3F0E08081282F2A
:1030E00030E08B81882F90E0A90102C0559547956B
:1030F0008A95E2F7CA018170EC81FD81808316C058
:10310000E0E3F0E08081282F30E08B81882F90E091
:10311000A90102C0559547958A95E2F7CA018170C9
:10312000EC81FD81808302C081E0898389812796BB
:103130000FB6F894DEBF0FBECDBFCF91DF910895DB
:10314000DF93CF9300D000D00F92CDB7DEB78A8344
:103150006B8319828A81282F30E03D832C838C81F8
:103160009D8182309105D9F02C813D81233031053C
:1031700034F48C819D818130910561F01FC02C81D8
:103180003D812330310581F08C819D818430910512
:1031900081F014C0EBE3F0E08B81808311C0E8E3A1
:1031A000F0E08B8180830CC0E5E3F0E08B818083CD
:1031B00007C0E2E3F0E08B81808302C081E0898375
:1031C00089810F900F900F900F900F90CF91DF910A
:1031D0000895DF93CF9300D000D000D0CDB7DEB7F5
:1031E0008A837C836B8319828A81282F30E03E8317
:1031F0002D838D819E8182309105E9F02D813E8164
:103200002330310534F48D819E818130910561F048
:1032100027C02D813E8123303105A1F08D819E8113
:1032200084309105B1F01CC0E9E3F0E08081EB81CE
:10323000FC81808317C0E6E3F0E08081EB81FC81B4
:10324000808310C0E3E3F0E08081EB81FC81808328
:1032500009C0E0E3F0E08081EB81FC81808302C063
:1032600081E08983898126960FB6F894DEBF0FBE70
:10327000CDBFCF91DF910895DF93CF9300D000D0E1
:103280000F92CDB7DEB78A836B8319828A81282F8C
:1032900030E03D832C838C819D818230910551F1FA
:1032A0002C813D812330310534F48C819D81813026
:1032B000910561F05BC02C813D812330310571F1B6
:1032C0008C819D8184309105E9F150C0ABE3B0E081
:1032D000EBE3F0E08081482F8B81282F30E081E004
:1032E00090E0022E02C0880F991F0A94E2F784270B
:1032F0008C933EC0A8E3B0E0E8E3F0E08081482F83
:103300008B81282F30E081E090E0022E02C0880FF0
:10331000991F0A94E2F784278C932AC0A5E3B0E0B2
:10332000E5E3F0E08081482F8B81282F30E081E0B9
:1033300090E0022E02C0880F991F0A94E2F78427BA
:103340008C9316C0A2E3B0E0E2E3F0E08081482F66
:103350008B81282F30E081E090E0022E02C0880FA0
:10336000991F0A94E2F784278C9302C081E0898335
:1033700089810F900F900F900F900F90CF91DF9158
:103380000895DF93CF93CDB7DEB70E944A150E9410
:1033900047066BE770E080E090E00E94F414FFCFF6
:1033A0002F923F924F925F926F927F928F929F9255
:1033B000AF92BF92CF92DF92EF92FF920F931F9343
:1033C000CF93DF93CDB7DEB7CA1BDB0B0FB6F894F4
:1033D000DEBF0FBECDBF09942A88398848885F8434
:1033E0006E847D848C849B84AA84B984C884DF80A5
:1033F000EE80FD800C811B81AA81B981CE0FD11D89
:103400000FB6F894DEBF0FBECDBFED010895FB01EE
:103410009F01E8944230C4F04532B4F44A3029F4B4
:1034200097FB1EF4909581959F4F642F77270E94FC
:10343000381A805D8A330CF0895D8193CB01009747
:10344000A1F716F45DE251931082C9010C94281A79
:10345000DC01FC01672F71917723E1F7329704C0FB
:103460007C916D9370836291AE17BF07C8F3089586
:10347000AA1BBB1B51E107C0AA1FBB1FA617B7079A
:1034800010F0A61BB70B881F991F5A95A9F78095B6
:0C3490009095BC01CD010895F894FFCF89
:08349C00000000000000000028
:00000001FF
